Archive member included to satisfy reference by file (symbol)

c:/allprograming/eclipse/arm/gcc-arm-none-eabi-9-2019-q4-major-win32/bin/../lib/gcc/arm-none-eabi/9.2.1/../../../../arm-none-eabi/lib/thumb/v7-m/nofp\libg_nano.a(lib_a-errno.o)
                              ./system/syscalls.o (__errno)
c:/allprograming/eclipse/arm/gcc-arm-none-eabi-9-2019-q4-major-win32/bin/../lib/gcc/arm-none-eabi/9.2.1/../../../../arm-none-eabi/lib/thumb/v7-m/nofp\libg_nano.a(lib_a-exit.o)
                              c:/allprograming/eclipse/arm/gcc-arm-none-eabi-9-2019-q4-major-win32/bin/../lib/gcc/arm-none-eabi/9.2.1/../../../../arm-none-eabi/lib/thumb/v7-m/nofp/crt0.o (exit)
c:/allprograming/eclipse/arm/gcc-arm-none-eabi-9-2019-q4-major-win32/bin/../lib/gcc/arm-none-eabi/9.2.1/../../../../arm-none-eabi/lib/thumb/v7-m/nofp\libg_nano.a(lib_a-impure.o)
                              c:/allprograming/eclipse/arm/gcc-arm-none-eabi-9-2019-q4-major-win32/bin/../lib/gcc/arm-none-eabi/9.2.1/../../../../arm-none-eabi/lib/thumb/v7-m/nofp\libg_nano.a(lib_a-exit.o) (_global_impure_ptr)
c:/allprograming/eclipse/arm/gcc-arm-none-eabi-9-2019-q4-major-win32/bin/../lib/gcc/arm-none-eabi/9.2.1/../../../../arm-none-eabi/lib/thumb/v7-m/nofp\libg_nano.a(lib_a-init.o)
                              c:/allprograming/eclipse/arm/gcc-arm-none-eabi-9-2019-q4-major-win32/bin/../lib/gcc/arm-none-eabi/9.2.1/../../../../arm-none-eabi/lib/thumb/v7-m/nofp/crt0.o (__libc_init_array)
c:/allprograming/eclipse/arm/gcc-arm-none-eabi-9-2019-q4-major-win32/bin/../lib/gcc/arm-none-eabi/9.2.1/../../../../arm-none-eabi/lib/thumb/v7-m/nofp\libg_nano.a(lib_a-memset.o)
                              c:/allprograming/eclipse/arm/gcc-arm-none-eabi-9-2019-q4-major-win32/bin/../lib/gcc/arm-none-eabi/9.2.1/../../../../arm-none-eabi/lib/thumb/v7-m/nofp/crt0.o (memset)

Discarded input sections

 .text          0x00000000        0x0 c:/allprograming/eclipse/arm/gcc-arm-none-eabi-9-2019-q4-major-win32/bin/../lib/gcc/arm-none-eabi/9.2.1/thumb/v7-m/nofp/crti.o
 .data          0x00000000        0x0 c:/allprograming/eclipse/arm/gcc-arm-none-eabi-9-2019-q4-major-win32/bin/../lib/gcc/arm-none-eabi/9.2.1/thumb/v7-m/nofp/crti.o
 .bss           0x00000000        0x0 c:/allprograming/eclipse/arm/gcc-arm-none-eabi-9-2019-q4-major-win32/bin/../lib/gcc/arm-none-eabi/9.2.1/thumb/v7-m/nofp/crti.o
 .data          0x00000000        0x4 c:/allprograming/eclipse/arm/gcc-arm-none-eabi-9-2019-q4-major-win32/bin/../lib/gcc/arm-none-eabi/9.2.1/thumb/v7-m/nofp/crtbegin.o
 .text          0x00000000       0x74 c:/allprograming/eclipse/arm/gcc-arm-none-eabi-9-2019-q4-major-win32/bin/../lib/gcc/arm-none-eabi/9.2.1/../../../../arm-none-eabi/lib/thumb/v7-m/nofp/crt0.o
 .data          0x00000000        0x0 c:/allprograming/eclipse/arm/gcc-arm-none-eabi-9-2019-q4-major-win32/bin/../lib/gcc/arm-none-eabi/9.2.1/../../../../arm-none-eabi/lib/thumb/v7-m/nofp/crt0.o
 .bss           0x00000000        0x0 c:/allprograming/eclipse/arm/gcc-arm-none-eabi-9-2019-q4-major-win32/bin/../lib/gcc/arm-none-eabi/9.2.1/../../../../arm-none-eabi/lib/thumb/v7-m/nofp/crt0.o
 .ARM.extab     0x00000000        0x0 c:/allprograming/eclipse/arm/gcc-arm-none-eabi-9-2019-q4-major-win32/bin/../lib/gcc/arm-none-eabi/9.2.1/../../../../arm-none-eabi/lib/thumb/v7-m/nofp/crt0.o
 .ARM.exidx     0x00000000        0x8 c:/allprograming/eclipse/arm/gcc-arm-none-eabi-9-2019-q4-major-win32/bin/../lib/gcc/arm-none-eabi/9.2.1/../../../../arm-none-eabi/lib/thumb/v7-m/nofp/crt0.o
 .ARM.attributes
                0x00000000       0x1b c:/allprograming/eclipse/arm/gcc-arm-none-eabi-9-2019-q4-major-win32/bin/../lib/gcc/arm-none-eabi/9.2.1/../../../../arm-none-eabi/lib/thumb/v7-m/nofp/crt0.o
 .text          0x00000000       0x14 ./system/startup_stm32.o
 .data          0x00000000        0x0 ./system/startup_stm32.o
 .bss           0x00000000        0x0 ./system/startup_stm32.o
 .group         0x00000000        0xc ./system/syscalls.o
 .group         0x00000000        0xc ./system/syscalls.o
 .group         0x00000000        0xc ./system/syscalls.o
 .group         0x00000000        0xc ./system/syscalls.o
Memory Configuration

Name             Origin             Length             Attributes
RAM              0x20000000         0x00005000         xrw
ROM              0x08000000         0x00010000         xr
*default*        0x00000000         0xffffffff

Linker script and memory map

LOAD c:/allprograming/eclipse/arm/gcc-arm-none-eabi-9-2019-q4-major-win32/bin/../lib/gcc/arm-none-eabi/9.2.1/thumb/v7-m/nofp/crti.o
LOAD c:/allprograming/eclipse/arm/gcc-arm-none-eabi-9-2019-q4-major-win32/bin/../lib/gcc/arm-none-eabi/9.2.1/thumb/v7-m/nofp/crtbegin.o
LOAD c:/allprograming/eclipse/arm/gcc-arm-none-eabi-9-2019-q4-major-win32/bin/../lib/gcc/arm-none-eabi/9.2.1/../../../../arm-none-eabi/lib/thumb/v7-m/nofp/crt0.o
LOAD ./system/startup_stm32.o
LOAD ./system/syscalls.o
LOAD ./system/system_stm32f10x.o
LOAD ./source/gpio.o
LOAD ./source/main.o
LOAD ./CMSIS/core/core_cm3.o
LOAD c:/allprograming/eclipse/arm/gcc-arm-none-eabi-9-2019-q4-major-win32/bin/../lib/gcc/arm-none-eabi/9.2.1/../../../../arm-none-eabi/lib/thumb/v7-m/nofp\libstdc++_nano.a
LOAD c:/allprograming/eclipse/arm/gcc-arm-none-eabi-9-2019-q4-major-win32/bin/../lib/gcc/arm-none-eabi/9.2.1/../../../../arm-none-eabi/lib/thumb/v7-m/nofp\libm.a
START GROUP
LOAD c:/allprograming/eclipse/arm/gcc-arm-none-eabi-9-2019-q4-major-win32/bin/../lib/gcc/arm-none-eabi/9.2.1/thumb/v7-m/nofp\libgcc.a
LOAD c:/allprograming/eclipse/arm/gcc-arm-none-eabi-9-2019-q4-major-win32/bin/../lib/gcc/arm-none-eabi/9.2.1/../../../../arm-none-eabi/lib/thumb/v7-m/nofp\libg_nano.a
LOAD c:/allprograming/eclipse/arm/gcc-arm-none-eabi-9-2019-q4-major-win32/bin/../lib/gcc/arm-none-eabi/9.2.1/../../../../arm-none-eabi/lib/thumb/v7-m/nofp\libc_nano.a
END GROUP
START GROUP
LOAD c:/allprograming/eclipse/arm/gcc-arm-none-eabi-9-2019-q4-major-win32/bin/../lib/gcc/arm-none-eabi/9.2.1/thumb/v7-m/nofp\libgcc.a
LOAD c:/allprograming/eclipse/arm/gcc-arm-none-eabi-9-2019-q4-major-win32/bin/../lib/gcc/arm-none-eabi/9.2.1/../../../../arm-none-eabi/lib/thumb/v7-m/nofp\libc_nano.a
END GROUP
LOAD c:/allprograming/eclipse/arm/gcc-arm-none-eabi-9-2019-q4-major-win32/bin/../lib/gcc/arm-none-eabi/9.2.1/thumb/v7-m/nofp/crtend.o
LOAD c:/allprograming/eclipse/arm/gcc-arm-none-eabi-9-2019-q4-major-win32/bin/../lib/gcc/arm-none-eabi/9.2.1/thumb/v7-m/nofp/crtn.o
                0x20005000                _estack = 0x20005000
                0x00000000                _Min_Heap_Size = 0x0
                0x00000064                _Min_Stack_Size = 0x64

.isr_vector     0x08000000      0x130
                0x08000000                . = ALIGN (0x4)
 *(.isr_vector)
 .isr_vector    0x08000000      0x130 ./system/startup_stm32.o
                0x08000000                g_pfnVectors
                0x08000130                . = ALIGN (0x4)

.text           0x08000130      0x2a4
                0x08000130                . = ALIGN (0x4)
 *(.text)
 .text          0x08000130       0x40 c:/allprograming/eclipse/arm/gcc-arm-none-eabi-9-2019-q4-major-win32/bin/../lib/gcc/arm-none-eabi/9.2.1/thumb/v7-m/nofp/crtbegin.o
 *(.text*)
 .text.Reset_Handler
                0x08000170       0x54 ./system/startup_stm32.o
                0x08000170                Reset_Handler
 .text.Default_Handler
                0x080001c4        0x2 ./system/startup_stm32.o
                0x080001c4                EXTI2_IRQHandler
                0x080001c4                TIM8_TRG_COM_IRQHandler
                0x080001c4                TIM8_CC_IRQHandler
                0x080001c4                DebugMon_Handler
                0x080001c4                TIM1_CC_IRQHandler
                0x080001c4                HardFault_Handler
                0x080001c4                TIM6_IRQHandler
                0x080001c4                SysTick_Handler
                0x080001c4                PVD_IRQHandler
                0x080001c4                SDIO_IRQHandler
                0x080001c4                PendSV_Handler
                0x080001c4                NMI_Handler
                0x080001c4                EXTI3_IRQHandler
                0x080001c4                USB_HP_CAN_TX_IRQHandler
                0x080001c4                EXTI0_IRQHandler
                0x080001c4                I2C2_EV_IRQHandler
                0x080001c4                UsageFault_Handler
                0x080001c4                ADC1_2_IRQHandler
                0x080001c4                SPI1_IRQHandler
                0x080001c4                CAN_SCE_IRQHandler
                0x080001c4                TAMPER_IRQHandler
                0x080001c4                TIM8_UP_IRQHandler
                0x080001c4                DMA2_Channel2_IRQHandler
                0x080001c4                DMA1_Channel4_IRQHandler
                0x080001c4                USART3_IRQHandler
                0x080001c4                RTC_IRQHandler
                0x080001c4                DMA1_Channel7_IRQHandler
                0x080001c4                UART5_IRQHandler
                0x080001c4                ADC3_IRQHandler
                0x080001c4                TIM4_IRQHandler
                0x080001c4                CAN_RX1_IRQHandler
                0x080001c4                DMA2_Channel1_IRQHandler
                0x080001c4                I2C1_EV_IRQHandler
                0x080001c4                DMA1_Channel6_IRQHandler
                0x080001c4                UART4_IRQHandler
                0x080001c4                TIM3_IRQHandler
                0x080001c4                RCC_IRQHandler
                0x080001c4                TIM1_TRG_COM_IRQHandler
                0x080001c4                DMA1_Channel1_IRQHandler
                0x080001c4                Default_Handler
                0x080001c4                EXTI15_10_IRQHandler
                0x080001c4                TIM7_IRQHandler
                0x080001c4                TIM5_IRQHandler
                0x080001c4                EXTI9_5_IRQHandler
                0x080001c4                SPI2_IRQHandler
                0x080001c4                USB_LP_CAN_RX0_IRQHandler
                0x080001c4                MemManage_Handler
                0x080001c4                SVC_Handler
                0x080001c4                DMA1_Channel5_IRQHandler
                0x080001c4                EXTI4_IRQHandler
                0x080001c4                DMA1_Channel3_IRQHandler
                0x080001c4                FSMC_IRQHandler
                0x080001c4                TIM1_UP_IRQHandler
                0x080001c4                WWDG_IRQHandler
                0x080001c4                TIM2_IRQHandler
                0x080001c4                TIM1_BRK_IRQHandler
                0x080001c4                EXTI1_IRQHandler
                0x080001c4                RTCAlarm_IRQHandler
                0x080001c4                DMA2_Channel4_5_IRQHandler
                0x080001c4                USART2_IRQHandler
                0x080001c4                I2C2_ER_IRQHandler
                0x080001c4                DMA1_Channel2_IRQHandler
                0x080001c4                TIM8_BRK_IRQHandler
                0x080001c4                FLASH_IRQHandler
                0x080001c4                BusFault_Handler
                0x080001c4                USART1_IRQHandler
                0x080001c4                SPI3_IRQHandler
                0x080001c4                I2C1_ER_IRQHandler
                0x080001c4                DMA2_Channel3_IRQHandler
 *fill*         0x080001c6        0x2 
 .text.SetSysClockTo72
                0x080001c8       0xc4 ./system/system_stm32f10x.o
 .text.SetSysClock
                0x0800028c        0x8 ./system/system_stm32f10x.o
 .text.SystemInit
                0x08000294       0x50 ./system/system_stm32f10x.o
                0x08000294                SystemInit
 .text.gpioInitialize
                0x080002e4       0x10 ./source/gpio.o
                0x080002e4                gpioInitialize
 .text.gpioPinConfiguration
                0x080002f4       0x40 ./source/gpio.o
                0x080002f4                gpioPinConfiguration
 .text.gpioBitToggle
                0x08000334        0xc ./source/gpio.o
                0x08000334                gpioBitToggle
 .text.main     0x08000340       0x34 ./source/main.o
                0x08000340                main
 .text.__libc_init_array
                0x08000374       0x48 c:/allprograming/eclipse/arm/gcc-arm-none-eabi-9-2019-q4-major-win32/bin/../lib/gcc/arm-none-eabi/9.2.1/../../../../arm-none-eabi/lib/thumb/v7-m/nofp\libg_nano.a(lib_a-init.o)
                0x08000374                __libc_init_array
 *(.glue_7)
 .glue_7        0x080003bc        0x0 linker stubs
 *(.glue_7t)
 .glue_7t       0x080003bc        0x0 linker stubs
 *(.eh_frame)
 .eh_frame      0x080003bc        0x0 c:/allprograming/eclipse/arm/gcc-arm-none-eabi-9-2019-q4-major-win32/bin/../lib/gcc/arm-none-eabi/9.2.1/thumb/v7-m/nofp/crtbegin.o
 *(.init)
 .init          0x080003bc        0x4 c:/allprograming/eclipse/arm/gcc-arm-none-eabi-9-2019-q4-major-win32/bin/../lib/gcc/arm-none-eabi/9.2.1/thumb/v7-m/nofp/crti.o
                0x080003bc                _init
 .init          0x080003c0        0x8 c:/allprograming/eclipse/arm/gcc-arm-none-eabi-9-2019-q4-major-win32/bin/../lib/gcc/arm-none-eabi/9.2.1/thumb/v7-m/nofp/crtn.o
 *(.fini)
 .fini          0x080003c8        0x4 c:/allprograming/eclipse/arm/gcc-arm-none-eabi-9-2019-q4-major-win32/bin/../lib/gcc/arm-none-eabi/9.2.1/thumb/v7-m/nofp/crti.o
                0x080003c8                _fini
 .fini          0x080003cc        0x8 c:/allprograming/eclipse/arm/gcc-arm-none-eabi-9-2019-q4-major-win32/bin/../lib/gcc/arm-none-eabi/9.2.1/thumb/v7-m/nofp/crtn.o
                0x080003d4                . = ALIGN (0x4)
                0x080003d4                _etext = .

.vfp11_veneer   0x080003d4        0x0
 .vfp11_veneer  0x080003d4        0x0 linker stubs

.v4_bx          0x080003d4        0x0
 .v4_bx         0x080003d4        0x0 linker stubs

.iplt           0x080003d4        0x0
 .iplt          0x080003d4        0x0 c:/allprograming/eclipse/arm/gcc-arm-none-eabi-9-2019-q4-major-win32/bin/../lib/gcc/arm-none-eabi/9.2.1/thumb/v7-m/nofp/crtbegin.o

.rel.dyn        0x080003d4        0x0
 .rel.iplt      0x080003d4        0x0 c:/allprograming/eclipse/arm/gcc-arm-none-eabi-9-2019-q4-major-win32/bin/../lib/gcc/arm-none-eabi/9.2.1/thumb/v7-m/nofp/crtbegin.o

.rodata         0x080003d4        0x0
                0x080003d4                . = ALIGN (0x4)
 *(.rodata)
 *(.rodata*)
                0x080003d4                . = ALIGN (0x4)

.ARM.extab      0x080003d4        0x0
                0x080003d4                . = ALIGN (0x4)
 *(.ARM.extab* .gnu.linkonce.armextab.*)
                0x080003d4                . = ALIGN (0x4)

.ARM            0x080003d4        0x0
                0x080003d4                . = ALIGN (0x4)
                0x080003d4                __exidx_start = .
 *(.ARM.exidx*)
                0x080003d4                __exidx_end = .
                0x080003d4                . = ALIGN (0x4)

.preinit_array  0x080003d4        0x0
                0x080003d4                . = ALIGN (0x4)
                0x080003d4                PROVIDE (__preinit_array_start = .)
 *(.preinit_array*)
                0x080003d4                PROVIDE (__preinit_array_end = .)
                0x080003d4                . = ALIGN (0x4)

.init_array     0x080003d4        0x4
                0x080003d4                . = ALIGN (0x4)
                0x080003d4                PROVIDE (__init_array_start = .)
 *(SORT_BY_NAME(.init_array.*))
 *(.init_array*)
 .init_array    0x080003d4        0x4 c:/allprograming/eclipse/arm/gcc-arm-none-eabi-9-2019-q4-major-win32/bin/../lib/gcc/arm-none-eabi/9.2.1/thumb/v7-m/nofp/crtbegin.o
                0x080003d8                PROVIDE (__init_array_end = .)
                0x080003d8                . = ALIGN (0x4)

.fini_array     0x080003d8        0x4
                0x080003d8                . = ALIGN (0x4)
                [!provide]                PROVIDE (__fini_array_start = .)
 *(SORT_BY_NAME(.fini_array.*))
 *(.fini_array*)
 .fini_array    0x080003d8        0x4 c:/allprograming/eclipse/arm/gcc-arm-none-eabi-9-2019-q4-major-win32/bin/../lib/gcc/arm-none-eabi/9.2.1/thumb/v7-m/nofp/crtbegin.o
                [!provide]                PROVIDE (__fini_array_end = .)
                0x080003dc                . = ALIGN (0x4)
                0x080003dc                _sidata = LOADADDR (.data)

.data           0x20000000        0x0 load address 0x080003dc
                0x20000000                . = ALIGN (0x4)
                0x20000000                _sdata = .
 *(.data)
 *(.data*)
                0x20000000                . = ALIGN (0x4)
                0x20000000                _edata = .

.igot.plt       0x20000000        0x0 load address 0x080003dc
 .igot.plt      0x20000000        0x0 c:/allprograming/eclipse/arm/gcc-arm-none-eabi-9-2019-q4-major-win32/bin/../lib/gcc/arm-none-eabi/9.2.1/thumb/v7-m/nofp/crtbegin.o
                0x20000000                . = ALIGN (0x4)

.bss            0x20000000       0x1c load address 0x080003dc
                0x20000000                _sbss = .
                0x20000000                __bss_start__ = _sbss
 *(.bss)
 .bss           0x20000000       0x1c c:/allprograming/eclipse/arm/gcc-arm-none-eabi-9-2019-q4-major-win32/bin/../lib/gcc/arm-none-eabi/9.2.1/thumb/v7-m/nofp/crtbegin.o
 *(.bss*)
 *(COMMON)
                0x2000001c                . = ALIGN (0x4)
                0x2000001c                _ebss = .
                0x2000001c                __bss_end__ = _ebss

._user_heap_stack
                0x2000001c       0x6c load address 0x080003dc
                0x20000020                . = ALIGN (0x8)
 *fill*         0x2000001c        0x4 
                0x20000020                PROVIDE (end = .)
                [!provide]                PROVIDE (_end = .)
                0x20000020                . = (. + _Min_Heap_Size)
                0x20000084                . = (. + _Min_Stack_Size)
 *fill*         0x20000020       0x64 
                0x20000088                . = ALIGN (0x8)
 *fill*         0x20000084        0x4 

/DISCARD/
 libc.a(*)
 libm.a(*)
 libgcc.a(*)

.ARM.attributes
                0x00000000       0x29
 *(.ARM.attributes)
 .ARM.attributes
                0x00000000       0x1d c:/allprograming/eclipse/arm/gcc-arm-none-eabi-9-2019-q4-major-win32/bin/../lib/gcc/arm-none-eabi/9.2.1/thumb/v7-m/nofp/crti.o
 .ARM.attributes
                0x0000001d       0x2d c:/allprograming/eclipse/arm/gcc-arm-none-eabi-9-2019-q4-major-win32/bin/../lib/gcc/arm-none-eabi/9.2.1/thumb/v7-m/nofp/crtbegin.o
 .ARM.attributes
                0x0000004a       0x21 ./system/startup_stm32.o
 .ARM.attributes
                0x0000006b       0x2d ./system/system_stm32f10x.o
 .ARM.attributes
                0x00000098       0x2d ./source/gpio.o
 .ARM.attributes
                0x000000c5       0x2d ./source/main.o
 .ARM.attributes
                0x000000f2       0x2d c:/allprograming/eclipse/arm/gcc-arm-none-eabi-9-2019-q4-major-win32/bin/../lib/gcc/arm-none-eabi/9.2.1/../../../../arm-none-eabi/lib/thumb/v7-m/nofp\libg_nano.a(lib_a-init.o)
 .ARM.attributes
                0x0000011f       0x1d c:/allprograming/eclipse/arm/gcc-arm-none-eabi-9-2019-q4-major-win32/bin/../lib/gcc/arm-none-eabi/9.2.1/thumb/v7-m/nofp/crtn.o
OUTPUT(BP.elf elf32-littlearm)

.debug_line     0x00000000      0x949
 .debug_line    0x00000000       0x7c ./system/startup_stm32.o
 .debug_line    0x0000007c      0x3cb ./system/system_stm32f10x.o
 .debug_line    0x00000447      0x342 ./source/gpio.o
 .debug_line    0x00000789      0x1c0 ./source/main.o

.debug_info     0x00000000      0xbf3
 .debug_info    0x00000000       0x22 ./system/startup_stm32.o
 .debug_info    0x00000022      0x48e ./system/system_stm32f10x.o
 .debug_info    0x000004b0      0x526 ./source/gpio.o
 .debug_info    0x000009d6      0x21d ./source/main.o

.debug_abbrev   0x00000000      0x4b7
 .debug_abbrev  0x00000000       0x12 ./system/startup_stm32.o
 .debug_abbrev  0x00000012      0x1ce ./system/system_stm32f10x.o
 .debug_abbrev  0x000001e0      0x19f ./source/gpio.o
 .debug_abbrev  0x0000037f      0x138 ./source/main.o

.debug_aranges  0x00000000       0xe8
 .debug_aranges
                0x00000000       0x28 ./system/startup_stm32.o
 .debug_aranges
                0x00000028       0x38 ./system/system_stm32f10x.o
 .debug_aranges
                0x00000060       0x68 ./source/gpio.o
 .debug_aranges
                0x000000c8       0x20 ./source/main.o

.debug_str      0x00000000    0x326e2
 .debug_str     0x00000000       0x54 ./system/startup_stm32.o
 .debug_str     0x00000054    0x31a8a ./system/system_stm32f10x.o
                              0x31c1e (size before relaxing)
 .debug_str     0x00031ade      0x381 ./source/gpio.o
                              0x31e76 (size before relaxing)
 .debug_str     0x00031e5f      0x883 ./source/main.o
                              0x323ab (size before relaxing)

.debug_ranges   0x00000000       0xb0
 .debug_ranges  0x00000000       0x20 ./system/startup_stm32.o
 .debug_ranges  0x00000020       0x28 ./system/system_stm32f10x.o
 .debug_ranges  0x00000048       0x58 ./source/gpio.o
 .debug_ranges  0x000000a0       0x10 ./source/main.o

.debug_loc      0x00000000      0x2bf
 .debug_loc     0x00000000       0xff ./system/system_stm32f10x.o
 .debug_loc     0x000000ff      0x1c0 ./source/gpio.o

.debug_macro    0x00000000     0x9bd8
 .debug_macro   0x00000000       0x59 ./system/system_stm32f10x.o
 .debug_macro   0x00000059       0x56 ./system/system_stm32f10x.o
 .debug_macro   0x000000af       0x22 ./system/system_stm32f10x.o
 .debug_macro   0x000000d1      0x34e ./system/system_stm32f10x.o
 .debug_macro   0x0000041f      0x69f ./system/system_stm32f10x.o
 .debug_macro   0x00000abe     0x7def ./system/system_stm32f10x.o
 .debug_macro   0x000088ad       0x56 ./source/gpio.o
 .debug_macro   0x00008903       0x56 ./source/main.o
 .debug_macro   0x00008959      0xbe0 ./source/main.o
 .debug_macro   0x00009539      0x69f ./source/main.o

.comment        0x00000000       0x79
 .comment       0x00000000       0x79 ./system/system_stm32f10x.o
                                 0x7a (size before relaxing)
 .comment       0x00000079       0x7a ./source/gpio.o
 .comment       0x00000079       0x7a ./source/main.o

.debug_frame    0x00000000      0x180
 .debug_frame   0x00000000       0x6c ./system/system_stm32f10x.o
 .debug_frame   0x0000006c       0xc0 ./source/gpio.o
 .debug_frame   0x0000012c       0x28 ./source/main.o
 .debug_frame   0x00000154       0x2c c:/allprograming/eclipse/arm/gcc-arm-none-eabi-9-2019-q4-major-win32/bin/../lib/gcc/arm-none-eabi/9.2.1/../../../../arm-none-eabi/lib/thumb/v7-m/nofp\libg_nano.a(lib_a-init.o)
