Archive member included to satisfy reference by file (symbol)

c:/allprograming/eclipse/arm/gcc-arm-none-eabi-9-2019-q4-major-win32/bin/../lib/gcc/arm-none-eabi/9.2.1/../../../../arm-none-eabi/lib/thumb/v7-m/nofp\libg_nano.a(lib_a-errno.o)
                              ./system/syscalls.o (__errno)
c:/allprograming/eclipse/arm/gcc-arm-none-eabi-9-2019-q4-major-win32/bin/../lib/gcc/arm-none-eabi/9.2.1/../../../../arm-none-eabi/lib/thumb/v7-m/nofp\libg_nano.a(lib_a-exit.o)
                              c:/allprograming/eclipse/arm/gcc-arm-none-eabi-9-2019-q4-major-win32/bin/../lib/gcc/arm-none-eabi/9.2.1/../../../../arm-none-eabi/lib/thumb/v7-m/nofp/crt0.o (exit)
c:/allprograming/eclipse/arm/gcc-arm-none-eabi-9-2019-q4-major-win32/bin/../lib/gcc/arm-none-eabi/9.2.1/../../../../arm-none-eabi/lib/thumb/v7-m/nofp\libg_nano.a(lib_a-impure.o)
                              c:/allprograming/eclipse/arm/gcc-arm-none-eabi-9-2019-q4-major-win32/bin/../lib/gcc/arm-none-eabi/9.2.1/../../../../arm-none-eabi/lib/thumb/v7-m/nofp\libg_nano.a(lib_a-exit.o) (_global_impure_ptr)
c:/allprograming/eclipse/arm/gcc-arm-none-eabi-9-2019-q4-major-win32/bin/../lib/gcc/arm-none-eabi/9.2.1/../../../../arm-none-eabi/lib/thumb/v7-m/nofp\libg_nano.a(lib_a-init.o)
                              c:/allprograming/eclipse/arm/gcc-arm-none-eabi-9-2019-q4-major-win32/bin/../lib/gcc/arm-none-eabi/9.2.1/../../../../arm-none-eabi/lib/thumb/v7-m/nofp/crt0.o (__libc_init_array)
c:/allprograming/eclipse/arm/gcc-arm-none-eabi-9-2019-q4-major-win32/bin/../lib/gcc/arm-none-eabi/9.2.1/../../../../arm-none-eabi/lib/thumb/v7-m/nofp\libg_nano.a(lib_a-memset.o)
                              c:/allprograming/eclipse/arm/gcc-arm-none-eabi-9-2019-q4-major-win32/bin/../lib/gcc/arm-none-eabi/9.2.1/../../../../arm-none-eabi/lib/thumb/v7-m/nofp/crt0.o (memset)

Discarded input sections

 .text          0x00000000        0x0 c:/allprograming/eclipse/arm/gcc-arm-none-eabi-9-2019-q4-major-win32/bin/../lib/gcc/arm-none-eabi/9.2.1/thumb/v7-m/nofp/crti.o
 .data          0x00000000        0x0 c:/allprograming/eclipse/arm/gcc-arm-none-eabi-9-2019-q4-major-win32/bin/../lib/gcc/arm-none-eabi/9.2.1/thumb/v7-m/nofp/crti.o
 .bss           0x00000000        0x0 c:/allprograming/eclipse/arm/gcc-arm-none-eabi-9-2019-q4-major-win32/bin/../lib/gcc/arm-none-eabi/9.2.1/thumb/v7-m/nofp/crti.o
 .data          0x00000000        0x4 c:/allprograming/eclipse/arm/gcc-arm-none-eabi-9-2019-q4-major-win32/bin/../lib/gcc/arm-none-eabi/9.2.1/thumb/v7-m/nofp/crtbegin.o
 .text          0x00000000       0x74 c:/allprograming/eclipse/arm/gcc-arm-none-eabi-9-2019-q4-major-win32/bin/../lib/gcc/arm-none-eabi/9.2.1/../../../../arm-none-eabi/lib/thumb/v7-m/nofp/crt0.o
 .data          0x00000000        0x0 c:/allprograming/eclipse/arm/gcc-arm-none-eabi-9-2019-q4-major-win32/bin/../lib/gcc/arm-none-eabi/9.2.1/../../../../arm-none-eabi/lib/thumb/v7-m/nofp/crt0.o
 .bss           0x00000000        0x0 c:/allprograming/eclipse/arm/gcc-arm-none-eabi-9-2019-q4-major-win32/bin/../lib/gcc/arm-none-eabi/9.2.1/../../../../arm-none-eabi/lib/thumb/v7-m/nofp/crt0.o
 .ARM.extab     0x00000000        0x0 c:/allprograming/eclipse/arm/gcc-arm-none-eabi-9-2019-q4-major-win32/bin/../lib/gcc/arm-none-eabi/9.2.1/../../../../arm-none-eabi/lib/thumb/v7-m/nofp/crt0.o
 .ARM.exidx     0x00000000        0x8 c:/allprograming/eclipse/arm/gcc-arm-none-eabi-9-2019-q4-major-win32/bin/../lib/gcc/arm-none-eabi/9.2.1/../../../../arm-none-eabi/lib/thumb/v7-m/nofp/crt0.o
 .ARM.attributes
                0x00000000       0x1b c:/allprograming/eclipse/arm/gcc-arm-none-eabi-9-2019-q4-major-win32/bin/../lib/gcc/arm-none-eabi/9.2.1/../../../../arm-none-eabi/lib/thumb/v7-m/nofp/crt0.o
 .text          0x00000000       0x14 ./system/startup_stm32.o
 .data          0x00000000        0x0 ./system/startup_stm32.o
 .bss           0x00000000        0x0 ./system/startup_stm32.o
 .group         0x00000000        0xc ./system/syscalls.o
 .group         0x00000000        0xc ./system/syscalls.o
 .group         0x00000000        0xc ./system/syscalls.o
 .group         0x00000000        0xc ./system/syscalls.o
Memory Configuration

Name             Origin             Length             Attributes
RAM              0x20000000         0x00005000         xrw
ROM              0x08000000         0x00010000         xr
*default*        0x00000000         0xffffffff

Linker script and memory map

LOAD c:/allprograming/eclipse/arm/gcc-arm-none-eabi-9-2019-q4-major-win32/bin/../lib/gcc/arm-none-eabi/9.2.1/thumb/v7-m/nofp/crti.o
LOAD c:/allprograming/eclipse/arm/gcc-arm-none-eabi-9-2019-q4-major-win32/bin/../lib/gcc/arm-none-eabi/9.2.1/thumb/v7-m/nofp/crtbegin.o
LOAD c:/allprograming/eclipse/arm/gcc-arm-none-eabi-9-2019-q4-major-win32/bin/../lib/gcc/arm-none-eabi/9.2.1/../../../../arm-none-eabi/lib/thumb/v7-m/nofp/crt0.o
LOAD ./system/startup_stm32.o
LOAD ./system/syscalls.o
LOAD ./system/system_stm32f10x.o
LOAD ./source/gpio.o
LOAD ./source/main.o
LOAD ./libs/FatFs/SPI_hardware.o
LOAD ./libs/FatFs/ff.o
LOAD ./CMSIS/core/core_cm3.o
LOAD c:/allprograming/eclipse/arm/gcc-arm-none-eabi-9-2019-q4-major-win32/bin/../lib/gcc/arm-none-eabi/9.2.1/../../../../arm-none-eabi/lib/thumb/v7-m/nofp\libstdc++_nano.a
LOAD c:/allprograming/eclipse/arm/gcc-arm-none-eabi-9-2019-q4-major-win32/bin/../lib/gcc/arm-none-eabi/9.2.1/../../../../arm-none-eabi/lib/thumb/v7-m/nofp\libm.a
START GROUP
LOAD c:/allprograming/eclipse/arm/gcc-arm-none-eabi-9-2019-q4-major-win32/bin/../lib/gcc/arm-none-eabi/9.2.1/thumb/v7-m/nofp\libgcc.a
LOAD c:/allprograming/eclipse/arm/gcc-arm-none-eabi-9-2019-q4-major-win32/bin/../lib/gcc/arm-none-eabi/9.2.1/../../../../arm-none-eabi/lib/thumb/v7-m/nofp\libg_nano.a
LOAD c:/allprograming/eclipse/arm/gcc-arm-none-eabi-9-2019-q4-major-win32/bin/../lib/gcc/arm-none-eabi/9.2.1/../../../../arm-none-eabi/lib/thumb/v7-m/nofp\libc_nano.a
END GROUP
START GROUP
LOAD c:/allprograming/eclipse/arm/gcc-arm-none-eabi-9-2019-q4-major-win32/bin/../lib/gcc/arm-none-eabi/9.2.1/thumb/v7-m/nofp\libgcc.a
LOAD c:/allprograming/eclipse/arm/gcc-arm-none-eabi-9-2019-q4-major-win32/bin/../lib/gcc/arm-none-eabi/9.2.1/../../../../arm-none-eabi/lib/thumb/v7-m/nofp\libc_nano.a
END GROUP
LOAD c:/allprograming/eclipse/arm/gcc-arm-none-eabi-9-2019-q4-major-win32/bin/../lib/gcc/arm-none-eabi/9.2.1/thumb/v7-m/nofp/crtend.o
LOAD c:/allprograming/eclipse/arm/gcc-arm-none-eabi-9-2019-q4-major-win32/bin/../lib/gcc/arm-none-eabi/9.2.1/thumb/v7-m/nofp/crtn.o
                0x20005000                _estack = 0x20005000
                0x00000000                _Min_Heap_Size = 0x0
                0x00000064                _Min_Stack_Size = 0x64

.isr_vector     0x08000000      0x130
                0x08000000                . = ALIGN (0x4)
 *(.isr_vector)
 .isr_vector    0x08000000      0x130 ./system/startup_stm32.o
                0x08000000                g_pfnVectors
                0x08000130                . = ALIGN (0x4)

.text           0x08000130     0x2074
                0x08000130                . = ALIGN (0x4)
 *(.text)
 .text          0x08000130       0x40 c:/allprograming/eclipse/arm/gcc-arm-none-eabi-9-2019-q4-major-win32/bin/../lib/gcc/arm-none-eabi/9.2.1/thumb/v7-m/nofp/crtbegin.o
 *(.text*)
 .text.Reset_Handler
                0x08000170       0x54 ./system/startup_stm32.o
                0x08000170                Reset_Handler
 .text.Default_Handler
                0x080001c4        0x2 ./system/startup_stm32.o
                0x080001c4                EXTI2_IRQHandler
                0x080001c4                TIM8_TRG_COM_IRQHandler
                0x080001c4                TIM8_CC_IRQHandler
                0x080001c4                DebugMon_Handler
                0x080001c4                TIM1_CC_IRQHandler
                0x080001c4                HardFault_Handler
                0x080001c4                TIM6_IRQHandler
                0x080001c4                PVD_IRQHandler
                0x080001c4                SDIO_IRQHandler
                0x080001c4                PendSV_Handler
                0x080001c4                NMI_Handler
                0x080001c4                EXTI3_IRQHandler
                0x080001c4                USB_HP_CAN_TX_IRQHandler
                0x080001c4                EXTI0_IRQHandler
                0x080001c4                I2C2_EV_IRQHandler
                0x080001c4                UsageFault_Handler
                0x080001c4                ADC1_2_IRQHandler
                0x080001c4                SPI1_IRQHandler
                0x080001c4                CAN_SCE_IRQHandler
                0x080001c4                TAMPER_IRQHandler
                0x080001c4                TIM8_UP_IRQHandler
                0x080001c4                DMA2_Channel2_IRQHandler
                0x080001c4                DMA1_Channel4_IRQHandler
                0x080001c4                USART3_IRQHandler
                0x080001c4                RTC_IRQHandler
                0x080001c4                DMA1_Channel7_IRQHandler
                0x080001c4                UART5_IRQHandler
                0x080001c4                ADC3_IRQHandler
                0x080001c4                TIM4_IRQHandler
                0x080001c4                CAN_RX1_IRQHandler
                0x080001c4                DMA2_Channel1_IRQHandler
                0x080001c4                I2C1_EV_IRQHandler
                0x080001c4                DMA1_Channel6_IRQHandler
                0x080001c4                UART4_IRQHandler
                0x080001c4                TIM3_IRQHandler
                0x080001c4                RCC_IRQHandler
                0x080001c4                TIM1_TRG_COM_IRQHandler
                0x080001c4                DMA1_Channel1_IRQHandler
                0x080001c4                Default_Handler
                0x080001c4                EXTI15_10_IRQHandler
                0x080001c4                TIM7_IRQHandler
                0x080001c4                TIM5_IRQHandler
                0x080001c4                EXTI9_5_IRQHandler
                0x080001c4                SPI2_IRQHandler
                0x080001c4                USB_LP_CAN_RX0_IRQHandler
                0x080001c4                MemManage_Handler
                0x080001c4                SVC_Handler
                0x080001c4                DMA1_Channel5_IRQHandler
                0x080001c4                EXTI4_IRQHandler
                0x080001c4                DMA1_Channel3_IRQHandler
                0x080001c4                FSMC_IRQHandler
                0x080001c4                TIM1_UP_IRQHandler
                0x080001c4                WWDG_IRQHandler
                0x080001c4                TIM2_IRQHandler
                0x080001c4                TIM1_BRK_IRQHandler
                0x080001c4                EXTI1_IRQHandler
                0x080001c4                RTCAlarm_IRQHandler
                0x080001c4                DMA2_Channel4_5_IRQHandler
                0x080001c4                USART2_IRQHandler
                0x080001c4                I2C2_ER_IRQHandler
                0x080001c4                DMA1_Channel2_IRQHandler
                0x080001c4                TIM8_BRK_IRQHandler
                0x080001c4                FLASH_IRQHandler
                0x080001c4                BusFault_Handler
                0x080001c4                USART1_IRQHandler
                0x080001c4                SPI3_IRQHandler
                0x080001c4                I2C1_ER_IRQHandler
                0x080001c4                DMA2_Channel3_IRQHandler
 *fill*         0x080001c6        0x2 
 .text.SetSysClockTo72
                0x080001c8       0xc4 ./system/system_stm32f10x.o
 .text.SetSysClock
                0x0800028c        0x8 ./system/system_stm32f10x.o
 .text.SystemInit
                0x08000294       0x50 ./system/system_stm32f10x.o
                0x08000294                SystemInit
 .text.gpioInitialize
                0x080002e4       0x10 ./source/gpio.o
                0x080002e4                gpioInitialize
 .text.gpioPinConfiguration
                0x080002f4       0x40 ./source/gpio.o
                0x080002f4                gpioPinConfiguration
 .text.gpioBitSet
                0x08000334        0x8 ./source/gpio.o
                0x08000334                gpioBitSet
 .text.gpioBitReset
                0x0800033c        0x8 ./source/gpio.o
                0x0800033c                gpioBitReset
 .text.gpioBitRead
                0x08000344       0x12 ./source/gpio.o
                0x08000344                gpioBitRead
 *fill*         0x08000356        0x2 
 .text._Z5errorv
                0x08000358       0x10 ./source/main.o
                0x08000358                error()
 .text._Z7noErrorv
                0x08000368       0x10 ./source/main.o
                0x08000368                noError()
 .text._Z7spiInitv
                0x08000378       0x54 ./source/main.o
                0x08000378                spiInit()
 .text._Z8spiIsAckv
                0x080003cc       0x18 ./source/main.o
                0x080003cc                spiIsAck()
 .text._Z5spiExh
                0x080003e4       0x28 ./source/main.o
                0x080003e4                spiEx(unsigned char)
 .text._Z11spiSendDataPhm
                0x0800040c       0x1a ./source/main.o
                0x0800040c                spiSendData(unsigned char*, unsigned long)
 *fill*         0x08000426        0x2 
 .text._Z8timeInitv
                0x08000428       0x34 ./source/main.o
                0x08000428                timeInit()
 .text.SysTick_Handler
                0x0800045c       0x16 ./source/main.o
                0x0800045c                SysTick_Handler
 *fill*         0x08000472        0x2 
 .text.main     0x08000474       0xdc ./source/main.o
                0x08000474                main
 .text.xchange_spi
                0x08000550       0x28 ./libs/FatFs/SPI_hardware.o
 .text.rcvr_spi_multi
                0x08000578       0x2c ./libs/FatFs/SPI_hardware.o
 .text.xmit_spi_multi
                0x080005a4       0x2c ./libs/FatFs/SPI_hardware.o
 .text.wait_ready
                0x080005d0       0x28 ./libs/FatFs/SPI_hardware.o
 .text.deselect
                0x080005f8       0x14 ./libs/FatFs/SPI_hardware.o
 .text.select   0x0800060c       0x2c ./libs/FatFs/SPI_hardware.o
 .text.rcvr_datablock
                0x08000638       0x44 ./libs/FatFs/SPI_hardware.o
 .text.xmit_datablock
                0x0800067c       0x4c ./libs/FatFs/SPI_hardware.o
 .text.send_cmd
                0x080006c8       0x8c ./libs/FatFs/SPI_hardware.o
 .text.init_spi
                0x08000754       0x6c ./libs/FatFs/SPI_hardware.o
 .text.disk_initialize
                0x080007c0      0x168 ./libs/FatFs/SPI_hardware.o
                0x080007c0                disk_initialize
 .text.disk_status
                0x08000928       0x14 ./libs/FatFs/SPI_hardware.o
                0x08000928                disk_status
 .text.disk_read
                0x0800093c       0x8c ./libs/FatFs/SPI_hardware.o
                0x0800093c                disk_read
 .text.disk_write
                0x080009c8       0xb0 ./libs/FatFs/SPI_hardware.o
                0x080009c8                disk_write
 .text.disk_ioctl
                0x08000a78      0x224 ./libs/FatFs/SPI_hardware.o
                0x08000a78                disk_ioctl
 .text.disk_timerproc
                0x08000c9c       0x2c ./libs/FatFs/SPI_hardware.o
                0x08000c9c                disk_timerproc
 .text.get_fattime
                0x08000cc8        0x8 ./libs/FatFs/SPI_hardware.o
                0x08000cc8                get_fattime
 .text.ld_word  0x08000cd0        0xa ./libs/FatFs/ff.o
 .text.ld_dword
                0x08000cda       0x16 ./libs/FatFs/ff.o
 .text.st_word  0x08000cf0        0x8 ./libs/FatFs/ff.o
 .text.st_dword
                0x08000cf8       0x14 ./libs/FatFs/ff.o
 .text.mem_cpy  0x08000d0c       0x16 ./libs/FatFs/ff.o
 .text.mem_set  0x08000d22        0xa ./libs/FatFs/ff.o
 .text.mem_cmp  0x08000d2c       0x1a ./libs/FatFs/ff.o
 .text.chk_chr  0x08000d46       0x10 ./libs/FatFs/ff.o
 .text.clust2sect
                0x08000d56       0x18 ./libs/FatFs/ff.o
 .text.clmt_clust
                0x08000d6e       0x22 ./libs/FatFs/ff.o
 .text.ld_clust
                0x08000d90       0x26 ./libs/FatFs/ff.o
 .text.st_clust
                0x08000db6       0x26 ./libs/FatFs/ff.o
 .text.create_name
                0x08000ddc       0xc4 ./libs/FatFs/ff.o
 .text.get_ldnumber
                0x08000ea0       0x52 ./libs/FatFs/ff.o
 .text.validate
                0x08000ef2       0x32 ./libs/FatFs/ff.o
 .text.sync_window
                0x08000f24       0x52 ./libs/FatFs/ff.o
 .text.move_window
                0x08000f76       0x36 ./libs/FatFs/ff.o
 .text.check_fs
                0x08000fac       0x78 ./libs/FatFs/ff.o
 .text.find_volume
                0x08001024      0x2f8 ./libs/FatFs/ff.o
 .text.put_fat  0x0800131c      0x10e ./libs/FatFs/ff.o
 .text.get_fat  0x0800142a       0xd0 ./libs/FatFs/ff.o
 .text.dir_sdi  0x080014fa       0xac ./libs/FatFs/ff.o
 .text.create_chain
                0x080015a6       0xcc ./libs/FatFs/ff.o
 .text.remove_chain
                0x08001672       0x7e ./libs/FatFs/ff.o
 .text.dir_next
                0x080016f0      0x108 ./libs/FatFs/ff.o
 .text.dir_find
                0x080017f8       0x5a ./libs/FatFs/ff.o
 .text.follow_path
                0x08001852       0x8e ./libs/FatFs/ff.o
 .text.dir_alloc
                0x080018e0       0x50 ./libs/FatFs/ff.o
 .text.dir_register
                0x08001930       0x3e ./libs/FatFs/ff.o
 *fill*         0x0800196e        0x2 
 .text.sync_fs  0x08001970       0x8c ./libs/FatFs/ff.o
 .text.f_mount  0x080019fc       0x58 ./libs/FatFs/ff.o
                0x080019fc                f_mount
 .text.f_open   0x08001a54      0x1f0 ./libs/FatFs/ff.o
                0x08001a54                f_open
 .text.f_read   0x08001c44      0x1c2 ./libs/FatFs/ff.o
                0x08001c44                f_read
 .text.f_sync   0x08001e06       0x98 ./libs/FatFs/ff.o
                0x08001e06                f_sync
 .text.f_close  0x08001e9e       0x20 ./libs/FatFs/ff.o
                0x08001e9e                f_close
 .text.f_lseek  0x08001ebe      0x286 ./libs/FatFs/ff.o
                0x08001ebe                f_lseek
 .text.__libc_init_array
                0x08002144       0x48 c:/allprograming/eclipse/arm/gcc-arm-none-eabi-9-2019-q4-major-win32/bin/../lib/gcc/arm-none-eabi/9.2.1/../../../../arm-none-eabi/lib/thumb/v7-m/nofp\libg_nano.a(lib_a-init.o)
                0x08002144                __libc_init_array
 *(.glue_7)
 .glue_7        0x0800218c        0x0 linker stubs
 *(.glue_7t)
 .glue_7t       0x0800218c        0x0 linker stubs
 *(.eh_frame)
 .eh_frame      0x0800218c        0x0 c:/allprograming/eclipse/arm/gcc-arm-none-eabi-9-2019-q4-major-win32/bin/../lib/gcc/arm-none-eabi/9.2.1/thumb/v7-m/nofp/crtbegin.o
 *(.init)
 .init          0x0800218c        0x4 c:/allprograming/eclipse/arm/gcc-arm-none-eabi-9-2019-q4-major-win32/bin/../lib/gcc/arm-none-eabi/9.2.1/thumb/v7-m/nofp/crti.o
                0x0800218c                _init
 .init          0x08002190        0x8 c:/allprograming/eclipse/arm/gcc-arm-none-eabi-9-2019-q4-major-win32/bin/../lib/gcc/arm-none-eabi/9.2.1/thumb/v7-m/nofp/crtn.o
 *(.fini)
 .fini          0x08002198        0x4 c:/allprograming/eclipse/arm/gcc-arm-none-eabi-9-2019-q4-major-win32/bin/../lib/gcc/arm-none-eabi/9.2.1/thumb/v7-m/nofp/crti.o
                0x08002198                _fini
 .fini          0x0800219c        0x8 c:/allprograming/eclipse/arm/gcc-arm-none-eabi-9-2019-q4-major-win32/bin/../lib/gcc/arm-none-eabi/9.2.1/thumb/v7-m/nofp/crtn.o
                0x080021a4                . = ALIGN (0x4)
                0x080021a4                _etext = .

.vfp11_veneer   0x080021a4        0x0
 .vfp11_veneer  0x080021a4        0x0 linker stubs

.v4_bx          0x080021a4        0x0
 .v4_bx         0x080021a4        0x0 linker stubs

.iplt           0x080021a4        0x0
 .iplt          0x080021a4        0x0 c:/allprograming/eclipse/arm/gcc-arm-none-eabi-9-2019-q4-major-win32/bin/../lib/gcc/arm-none-eabi/9.2.1/thumb/v7-m/nofp/crtbegin.o

.rodata         0x080021a4       0x20
                0x080021a4                . = ALIGN (0x4)
 *(.rodata)
 *(.rodata*)
 .rodata.main.str1.4
                0x080021a4        0xf ./source/main.o
                                 0x13 (size before relaxing)
 *fill*         0x080021b3        0x1 
 .rodata.create_name.str1.4
                0x080021b4        0xf ./libs/FatFs/ff.o
                0x080021c4                . = ALIGN (0x4)
 *fill*         0x080021c3        0x1 

.rel.dyn        0x080021c4        0x0
 .rel.iplt      0x080021c4        0x0 c:/allprograming/eclipse/arm/gcc-arm-none-eabi-9-2019-q4-major-win32/bin/../lib/gcc/arm-none-eabi/9.2.1/thumb/v7-m/nofp/crtbegin.o

.ARM.extab      0x080021c4        0x0
                0x080021c4                . = ALIGN (0x4)
 *(.ARM.extab* .gnu.linkonce.armextab.*)
                0x080021c4                . = ALIGN (0x4)

.ARM            0x080021c4        0x0
                0x080021c4                . = ALIGN (0x4)
                0x080021c4                __exidx_start = .
 *(.ARM.exidx*)
                0x080021c4                __exidx_end = .
                0x080021c4                . = ALIGN (0x4)

.preinit_array  0x080021c4        0x0
                0x080021c4                . = ALIGN (0x4)
                0x080021c4                PROVIDE (__preinit_array_start = .)
 *(.preinit_array*)
                0x080021c4                PROVIDE (__preinit_array_end = .)
                0x080021c4                . = ALIGN (0x4)

.init_array     0x080021c4        0x4
                0x080021c4                . = ALIGN (0x4)
                0x080021c4                PROVIDE (__init_array_start = .)
 *(SORT_BY_NAME(.init_array.*))
 *(.init_array*)
 .init_array    0x080021c4        0x4 c:/allprograming/eclipse/arm/gcc-arm-none-eabi-9-2019-q4-major-win32/bin/../lib/gcc/arm-none-eabi/9.2.1/thumb/v7-m/nofp/crtbegin.o
                0x080021c8                PROVIDE (__init_array_end = .)
                0x080021c8                . = ALIGN (0x4)

.fini_array     0x080021c8        0x4
                0x080021c8                . = ALIGN (0x4)
                [!provide]                PROVIDE (__fini_array_start = .)
 *(SORT_BY_NAME(.fini_array.*))
 *(.fini_array*)
 .fini_array    0x080021c8        0x4 c:/allprograming/eclipse/arm/gcc-arm-none-eabi-9-2019-q4-major-win32/bin/../lib/gcc/arm-none-eabi/9.2.1/thumb/v7-m/nofp/crtbegin.o
                [!provide]                PROVIDE (__fini_array_end = .)
                0x080021cc                . = ALIGN (0x4)
                0x080021cc                _sidata = LOADADDR (.data)

.data           0x20000000        0x8 load address 0x080021cc
                0x20000000                . = ALIGN (0x4)
                0x20000000                _sdata = .
 *(.data)
 *(.data*)
 .data.SystemCoreClock
                0x20000000        0x4 ./system/system_stm32f10x.o
                0x20000000                SystemCoreClock
 .data.Stat     0x20000004        0x1 ./libs/FatFs/SPI_hardware.o
                0x20000008                . = ALIGN (0x4)
 *fill*         0x20000005        0x3 
                0x20000008                _edata = .

.igot.plt       0x20000008        0x0 load address 0x080021d4
 .igot.plt      0x20000008        0x0 c:/allprograming/eclipse/arm/gcc-arm-none-eabi-9-2019-q4-major-win32/bin/../lib/gcc/arm-none-eabi/9.2.1/thumb/v7-m/nofp/crtbegin.o
                0x20000008                . = ALIGN (0x4)

.bss            0x20000008       0x30 load address 0x080021d4
                0x20000008                _sbss = .
                0x20000008                __bss_start__ = _sbss
 *(.bss)
 .bss           0x20000008       0x1c c:/allprograming/eclipse/arm/gcc-arm-none-eabi-9-2019-q4-major-win32/bin/../lib/gcc/arm-none-eabi/9.2.1/thumb/v7-m/nofp/crtbegin.o
 *(.bss*)
 .bss.CardType  0x20000024        0x1 ./libs/FatFs/SPI_hardware.o
 *fill*         0x20000025        0x3 
 .bss.Timer1    0x20000028        0x4 ./libs/FatFs/SPI_hardware.o
 .bss.Timer2    0x2000002c        0x4 ./libs/FatFs/SPI_hardware.o
 .bss.FatFs     0x20000030        0x4 ./libs/FatFs/ff.o
 .bss.Fsid      0x20000034        0x2 ./libs/FatFs/ff.o
 *(COMMON)
                0x20000038                . = ALIGN (0x4)
 *fill*         0x20000036        0x2 
                0x20000038                _ebss = .
                0x20000038                __bss_end__ = _ebss

._user_heap_stack
                0x20000038       0x68 load address 0x080021d4
                0x20000038                . = ALIGN (0x8)
                0x20000038                PROVIDE (end = .)
                [!provide]                PROVIDE (_end = .)
                0x20000038                . = (. + _Min_Heap_Size)
                0x2000009c                . = (. + _Min_Stack_Size)
 *fill*         0x20000038       0x64 
                0x200000a0                . = ALIGN (0x8)
 *fill*         0x2000009c        0x4 

/DISCARD/
 libc.a(*)
 libm.a(*)
 libgcc.a(*)

.ARM.attributes
                0x00000000       0x29
 *(.ARM.attributes)
 .ARM.attributes
                0x00000000       0x1d c:/allprograming/eclipse/arm/gcc-arm-none-eabi-9-2019-q4-major-win32/bin/../lib/gcc/arm-none-eabi/9.2.1/thumb/v7-m/nofp/crti.o
 .ARM.attributes
                0x0000001d       0x2d c:/allprograming/eclipse/arm/gcc-arm-none-eabi-9-2019-q4-major-win32/bin/../lib/gcc/arm-none-eabi/9.2.1/thumb/v7-m/nofp/crtbegin.o
 .ARM.attributes
                0x0000004a       0x21 ./system/startup_stm32.o
 .ARM.attributes
                0x0000006b       0x2d ./system/system_stm32f10x.o
 .ARM.attributes
                0x00000098       0x2d ./source/gpio.o
 .ARM.attributes
                0x000000c5       0x2d ./source/main.o
 .ARM.attributes
                0x000000f2       0x2d ./libs/FatFs/SPI_hardware.o
 .ARM.attributes
                0x0000011f       0x2d ./libs/FatFs/ff.o
 .ARM.attributes
                0x0000014c       0x2d c:/allprograming/eclipse/arm/gcc-arm-none-eabi-9-2019-q4-major-win32/bin/../lib/gcc/arm-none-eabi/9.2.1/../../../../arm-none-eabi/lib/thumb/v7-m/nofp\libg_nano.a(lib_a-init.o)
 .ARM.attributes
                0x00000179       0x1d c:/allprograming/eclipse/arm/gcc-arm-none-eabi-9-2019-q4-major-win32/bin/../lib/gcc/arm-none-eabi/9.2.1/thumb/v7-m/nofp/crtn.o
OUTPUT(BP_SIST_TX.elf elf32-littlearm)

.debug_line     0x00000000     0x4278
 .debug_line    0x00000000       0x7c ./system/startup_stm32.o
 .debug_line    0x0000007c      0x3db ./system/system_stm32f10x.o
 .debug_line    0x00000457      0x35a ./source/gpio.o
 .debug_line    0x000007b1      0x516 ./source/main.o
 .debug_line    0x00000cc7      0xc2f ./libs/FatFs/SPI_hardware.o
 .debug_line    0x000018f6     0x2982 ./libs/FatFs/ff.o

.debug_info     0x00000000     0x54de
 .debug_info    0x00000000       0x22 ./system/startup_stm32.o
 .debug_info    0x00000022      0x48e ./system/system_stm32f10x.o
 .debug_info    0x000004b0      0x526 ./source/gpio.o
 .debug_info    0x000009d6      0xfd0 ./source/main.o
 .debug_info    0x000019a6      0xf11 ./libs/FatFs/SPI_hardware.o
 .debug_info    0x000028b7     0x2c27 ./libs/FatFs/ff.o

.debug_abbrev   0x00000000      0xb09
 .debug_abbrev  0x00000000       0x12 ./system/startup_stm32.o
 .debug_abbrev  0x00000012      0x1ce ./system/system_stm32f10x.o
 .debug_abbrev  0x000001e0      0x19f ./source/gpio.o
 .debug_abbrev  0x0000037f      0x2f3 ./source/main.o
 .debug_abbrev  0x00000672      0x27e ./libs/FatFs/SPI_hardware.o
 .debug_abbrev  0x000008f0      0x219 ./libs/FatFs/ff.o

.debug_aranges  0x00000000      0x340
 .debug_aranges
                0x00000000       0x28 ./system/startup_stm32.o
 .debug_aranges
                0x00000028       0x38 ./system/system_stm32f10x.o
 .debug_aranges
                0x00000060       0x68 ./source/gpio.o
 .debug_aranges
                0x000000c8       0x60 ./source/main.o
 .debug_aranges
                0x00000128       0xa0 ./libs/FatFs/SPI_hardware.o
 .debug_aranges
                0x000001c8      0x178 ./libs/FatFs/ff.o

.debug_str      0x00000000    0x345d0
 .debug_str     0x00000000       0x5c ./system/startup_stm32.o
 .debug_str     0x0000005c    0x31a70 ./system/system_stm32f10x.o
                              0x31c26 (size before relaxing)
 .debug_str     0x00031acc      0x374 ./source/gpio.o
                              0x31e7e (size before relaxing)
 .debug_str     0x00031e40     0x1a2a ./source/main.o
                              0x336a4 (size before relaxing)
 .debug_str     0x0003386a      0x22e ./libs/FatFs/SPI_hardware.o
                              0x325da (size before relaxing)
 .debug_str     0x00033a98      0xb38 ./libs/FatFs/ff.o
                               0x42a0 (size before relaxing)

.debug_ranges   0x00000000      0x308
 .debug_ranges  0x00000000       0x20 ./system/startup_stm32.o
 .debug_ranges  0x00000020       0x28 ./system/system_stm32f10x.o
 .debug_ranges  0x00000048       0x58 ./source/gpio.o
 .debug_ranges  0x000000a0       0x70 ./source/main.o
 .debug_ranges  0x00000110       0x90 ./libs/FatFs/SPI_hardware.o
 .debug_ranges  0x000001a0      0x168 ./libs/FatFs/ff.o

.debug_loc      0x00000000     0x454b
 .debug_loc     0x00000000       0xff ./system/system_stm32f10x.o
 .debug_loc     0x000000ff      0x1c0 ./source/gpio.o
 .debug_loc     0x000002bf      0x1b7 ./source/main.o
 .debug_loc     0x00000476      0xbcf ./libs/FatFs/SPI_hardware.o
 .debug_loc     0x00001045     0x3506 ./libs/FatFs/ff.o

.debug_macro    0x00000000     0xa548
 .debug_macro   0x00000000       0x59 ./system/system_stm32f10x.o
 .debug_macro   0x00000059       0x56 ./system/system_stm32f10x.o
 .debug_macro   0x000000af       0x22 ./system/system_stm32f10x.o
 .debug_macro   0x000000d1      0x34e ./system/system_stm32f10x.o
 .debug_macro   0x0000041f      0x69f ./system/system_stm32f10x.o
 .debug_macro   0x00000abe     0x7def ./system/system_stm32f10x.o
 .debug_macro   0x000088ad       0x56 ./source/gpio.o
 .debug_macro   0x00008903       0xcd ./source/main.o
 .debug_macro   0x000089d0      0xbe0 ./source/main.o
 .debug_macro   0x000095b0      0x69f ./source/main.o
 .debug_macro   0x00009c4f       0x16 ./source/main.o
 .debug_macro   0x00009c65       0xe9 ./source/main.o
 .debug_macro   0x00009d4e       0xe7 ./source/main.o
 .debug_macro   0x00009e35       0xb8 ./source/main.o
 .debug_macro   0x00009eed       0x7c ./source/main.o
 .debug_macro   0x00009f69       0xf5 ./libs/FatFs/SPI_hardware.o
 .debug_macro   0x0000a05e       0x16 ./libs/FatFs/SPI_hardware.o
 .debug_macro   0x0000a074       0xa6 ./libs/FatFs/SPI_hardware.o
 .debug_macro   0x0000a11a      0x42e ./libs/FatFs/ff.o

.comment        0x00000000       0x79
 .comment       0x00000000       0x79 ./system/system_stm32f10x.o
                                 0x7a (size before relaxing)
 .comment       0x00000079       0x7a ./source/gpio.o
 .comment       0x00000079       0x7a ./source/main.o
 .comment       0x00000079       0x7a ./libs/FatFs/SPI_hardware.o
 .comment       0x00000079       0x7a ./libs/FatFs/ff.o

.debug_frame    0x00000000      0x960
 .debug_frame   0x00000000       0x6c ./system/system_stm32f10x.o
 .debug_frame   0x0000006c       0xc0 ./source/gpio.o
 .debug_frame   0x0000012c       0xec ./source/main.o
 .debug_frame   0x00000218      0x1cc ./libs/FatFs/SPI_hardware.o
 .debug_frame   0x000003e4      0x550 ./libs/FatFs/ff.o
 .debug_frame   0x00000934       0x2c c:/allprograming/eclipse/arm/gcc-arm-none-eabi-9-2019-q4-major-win32/bin/../lib/gcc/arm-none-eabi/9.2.1/../../../../arm-none-eabi/lib/thumb/v7-m/nofp\libg_nano.a(lib_a-init.o)
